{
  "_format": "hh-sol-artifact-1",
  "contractName": "FactoryContract",
  "sourceName": "contracts/factoryContract.sol",
  "abi": [
    {
      "inputs": [
        {
          "internalType": "address",
          "name": "_beaconAddress",
          "type": "address"
        }
      ],
      "stateMutability": "nonpayable",
      "type": "constructor"
    },
    {
      "anonymous": false,
      "inputs": [
        {
          "indexed": true,
          "internalType": "address",
          "name": "proxy",
          "type": "address"
        },
        {
          "indexed": true,
          "internalType": "bytes",
          "name": "_passkeyId",
          "type": "bytes"
        }
      ],
      "name": "WalletCreated",
      "type": "event"
    },
    {
      "inputs": [],
      "name": "beacon",
      "outputs": [
        {
          "internalType": "address",
          "name": "",
          "type": "address"
        }
      ],
      "stateMutability": "view",
      "type": "function"
    },
    {
      "inputs": [
        {
          "internalType": "address",
          "name": "_entrypoint",
          "type": "address"
        },
        {
          "internalType": "address",
          "name": "_verifier",
          "type": "address"
        },
        {
          "internalType": "bytes",
          "name": "_passkeyId",
          "type": "bytes"
        },
        {
          "internalType": "string",
          "name": "rawId",
          "type": "string"
        }
      ],
      "name": "createWallet",
      "outputs": [
        {
          "internalType": "address",
          "name": "proxy",
          "type": "address"
        }
      ],
      "stateMutability": "nonpayable",
      "type": "function"
    },
    {
      "inputs": [
        {
          "internalType": "address",
          "name": "_entrypoint",
          "type": "address"
        },
        {
          "internalType": "address",
          "name": "_verifier",
          "type": "address"
        },
        {
          "internalType": "bytes",
          "name": "_passkeyId",
          "type": "bytes"
        }
      ],
      "name": "getAddress",
      "outputs": [
        {
          "internalType": "address",
          "name": "",
          "type": "address"
        }
      ],
      "stateMutability": "view",
      "type": "function"
    },
    {
      "inputs": [],
      "name": "salt",
      "outputs": [
        {
          "internalType": "string",
          "name": "",
          "type": "string"
        }
      ],
      "stateMutability": "view",
      "type": "function"
    },
    {
      "inputs": [
        {
          "internalType": "string",
          "name": "",
          "type": "string"
        }
      ],
      "name": "userAddress",
      "outputs": [
        {
          "internalType": "address",
          "name": "",
          "type": "address"
        }
      ],
      "stateMutability": "view",
      "type": "function"
    }
  ],
  "bytecode": "0x60e0604052600c60a09081526b131bdd5a58d955d85b1b195d60a21b60c0526000906200002d908262000170565b503480156200003b57600080fd5b5060405162001587380380620015878339810160408190526200005e916200023c565b6001600160a01b038116620000b95760405162461bcd60e51b815260206004820152601660248201527f496e76616c696420626561636f6e206164647265737300000000000000000000604482015260640160405180910390fd5b6001600160a01b03166080526200026e565b634e487b7160e01b600052604160045260246000fd5b600181811c90821680620000f657607f821691505b6020821081036200011757634e487b7160e01b600052602260045260246000fd5b50919050565b601f8211156200016b57600081815260208120601f850160051c81016020861015620001465750805b601f850160051c820191505b81811015620001675782815560010162000152565b5050505b505050565b81516001600160401b038111156200018c576200018c620000cb565b620001a4816200019d8454620000e1565b846200011d565b602080601f831160018114620001dc5760008415620001c35750858301515b600019600386901b1c1916600185901b17855562000167565b600085815260208120601f198616915b828110156200020d57888601518255948401946001909101908401620001ec565b50858210156200022c5787850151600019600388901b60f8161c191681555b5050505050600190811b01905550565b6000602082840312156200024f57600080fd5b81516001600160a01b03811681146200026757600080fd5b9392505050565b6080516112f0620002976000396000818160ae0152818161025501526104ec01526112f06000f3fe60806040523480156200001157600080fd5b50600436106200006f5760003560e01c80635c9566dc11620000565780635c9566dc14620000d0578063b7794c131462000107578063bfa0b133146200011e57600080fd5b80630c82c00d146200007457806359659e9014620000a8575b600080fd5b6200008b62000085366004620008a0565b62000137565b6040516001600160a01b0390911681526020015b60405180910390f35b6200008b7f000000000000000000000000000000000000000000000000000000000000000081565b6200008b620000e136600462000930565b80516020818301810180516001825292820191909301209152546001600160a01b031681565b6200008b6200011836600462000969565b620003ff565b62000128620005f7565b6040516200009f919062000a23565b60006001600160a01b038516158015906200015a57506001600160a01b03841615155b620001d25760405162461bcd60e51b815260206004820152603060248201527f5f656e747279706f696e7420616e64205f76657269666965722063616e6e6f7460448201527f206265207a65726f20616464726573730000000000000000000000000000000060648201526084015b60405180910390fd5b6000620001e1868686620003ff565b90506001600160a01b0381163b8015620001fe57509050620003f7565b6200034f60008060405160200162000217919062000a74565b60405160208183030381529060405280519060200120604051806020016200023f90620007ca565b6020820181038252601f19601f820116604052507f00000000000000000000000000000000000000000000000000000000000000007fcf7a1d7731e3f3e6e2dd856b11021787d92271e9fc551a07639191c1df61ce538c8c8c604051602401620002ac9392919062000b1b565b60408051601f19818403018152918152602080830180517bffffffffffffffffffffffffffffffffffffffffffffffffffffffff167fffffffff0000000000000000000000000000000000000000000000000000000090951694909417909352516200031a93920162000b52565b60408051601f19818403018152908290526200033a929160200162000b76565b6040516020818303038152906040526200068d565b92508260018560405162000364919062000ba9565b90815260405190819003602001812080546001600160a01b03939093167fffffffffffffffffffffffff000000000000000000000000000000000000000090931692909217909155620003b990869062000ba9565b604051908190038120906001600160a01b038516907f2e05cda897c427b46c4567a197b4da2401458a316b674d9ae34da134b076e91890600090a350505b949350505050565b60006001600160a01b038416158015906200042257506001600160a01b03831615155b620004965760405162461bcd60e51b815260206004820152603060248201527f5f656e747279706f696e7420616e64205f76657269666965722063616e6e6f7460448201527f206265207a65726f2061646472657373000000000000000000000000000000006064820152608401620001c9565b620005ed6000604051602001620004ae919062000a74565b6040516020818303038152906040528051906020012060405180602001620004d690620007ca565b6020820181038252601f19601f820116604052507f00000000000000000000000000000000000000000000000000000000000000007fcf7a1d7731e3f3e6e2dd856b11021787d92271e9fc551a07639191c1df61ce53888888604051602401620005439392919062000b1b565b60408051601f19818403018152918152602080830180517bffffffffffffffffffffffffffffffffffffffffffffffffffffffff167fffffffff000000000000000000000000000000000000000000000000000000009095169490941790935251620005b193920162000b52565b60408051601f1981840301815290829052620005d1929160200162000b76565b6040516020818303038152906040528051906020012062000797565b90505b9392505050565b60008054620006069062000a38565b80601f0160208091040260200160405190810160405280929190818152602001828054620006349062000a38565b8015620006855780601f10620006595761010080835404028352916020019162000685565b820191906000526020600020905b8154815290600101906020018083116200066757829003601f168201915b505050505081565b600083471015620006e15760405162461bcd60e51b815260206004820152601d60248201527f437265617465323a20696e73756666696369656e742062616c616e63650000006044820152606401620001c9565b8151600003620007345760405162461bcd60e51b815260206004820181905260248201527f437265617465323a2062797465636f6465206c656e677468206973207a65726f6044820152606401620001c9565b8282516020840186f590506001600160a01b038116620005f05760405162461bcd60e51b815260206004820152601960248201527f437265617465323a204661696c6564206f6e206465706c6f79000000000000006044820152606401620001c9565b6000620005f08383306000604051836040820152846020820152828152600b8101905060ff815360559020949350505050565b6106f38062000bc883390190565b80356001600160a01b0381168114620007f057600080fd5b919050565b634e487b7160e01b600052604160045260246000fd5b600082601f8301126200081d57600080fd5b813567ffffffffffffffff808211156200083b576200083b620007f5565b604051601f8301601f19908116603f01168101908282118183101715620008665762000866620007f5565b816040528381528660208588010111156200088057600080fd5b836020870160208301376000602085830101528094505050505092915050565b60008060008060808587031215620008b757600080fd5b620008c285620007d8565b9350620008d260208601620007d8565b9250604085013567ffffffffffffffff80821115620008f057600080fd5b620008fe888389016200080b565b935060608701359150808211156200091557600080fd5b5062000924878288016200080b565b91505092959194509250565b6000602082840312156200094357600080fd5b813567ffffffffffffffff8111156200095b57600080fd5b620003f7848285016200080b565b6000806000606084860312156200097f57600080fd5b6200098a84620007d8565b92506200099a60208501620007d8565b9150604084013567ffffffffffffffff811115620009b757600080fd5b620009c5868287016200080b565b9150509250925092565b60005b83811015620009ec578181015183820152602001620009d2565b50506000910152565b6000815180845262000a0f816020860160208601620009cf565b601f01601f19169290920160200192915050565b602081526000620005f06020830184620009f5565b600181811c9082168062000a4d57607f821691505b60208210810362000a6e57634e487b7160e01b600052602260045260246000fd5b50919050565b600080835481600182811c91508083168062000a9157607f831692505b6020808410820362000ab157634e487b7160e01b86526022600452602486fd5b81801562000ac8576001811462000ade5762000b0d565b60ff198616895284151585028901965062000b0d565b60008a81526020902060005b8681101562000b055781548b82015290850190830162000aea565b505084890196505b509498975050505050505050565b60006001600160a01b0380861683528085166020840152506060604083015262000b496060830184620009f5565b95945050505050565b6001600160a01b0383168152604060208201526000620005ed6040830184620009f5565b6000835162000b8a818460208801620009cf565b83519083019062000ba0818360208801620009cf565b01949350505050565b6000825162000bbd818460208701620009cf565b919091019291505056fe60806040526040516106f33803806106f383398101604081905261002291610420565b61002e82826000610035565b505061054a565b61003e836100f6565b6040516001600160a01b038416907f1cf3b03a6cf19fa2baba4df148e9dcabedea7f8a5c07840e207e5c089be95d3e90600090a260008251118061007f5750805b156100f1576100ef836001600160a01b0316635c60da1b6040518163ffffffff1660e01b8152600401602060405180830381865afa1580156100c5573d6000803e3d6000fd5b505050506040513d601f19601f820116820180604052508101906100e991906104e0565b8361027a565b505b505050565b6001600160a01b0381163b6101605760405162461bcd60e51b815260206004820152602560248201527f455243313936373a206e657720626561636f6e206973206e6f74206120636f6e6044820152641d1c9858dd60da1b60648201526084015b60405180910390fd5b6101d4816001600160a01b0316635c60da1b6040518163ffffffff1660e01b8152600401602060405180830381865afa1580156101a1573d6000803e3d6000fd5b505050506040513d601f19601f820116820180604052508101906101c591906104e0565b6001600160a01b03163b151590565b6102395760405162461bcd60e51b815260206004820152603060248201527f455243313936373a20626561636f6e20696d706c656d656e746174696f6e206960448201526f1cc81b9bdd08184818dbdb9d1c9858dd60821b6064820152608401610157565b7fa3f0ad74e5423aebfd80d3ef4346578335a9a72aeaee59ff6cb3582b35133d5080546001600160a01b0319166001600160a01b0392909216919091179055565b606061029f83836040518060600160405280602781526020016106cc602791396102a6565b9392505050565b6060600080856001600160a01b0316856040516102c391906104fb565b600060405180830381855af49150503d80600081146102fe576040519150601f19603f3d011682016040523d82523d6000602084013e610303565b606091505b5090925090506103158683838761031f565b9695505050505050565b6060831561038e578251600003610387576001600160a01b0385163b6103875760405162461bcd60e51b815260206004820152601d60248201527f416464726573733a2063616c6c20746f206e6f6e2d636f6e74726163740000006044820152606401610157565b5081610398565b61039883836103a0565b949350505050565b8151156103b05781518083602001fd5b8060405162461bcd60e51b81526004016101579190610517565b80516001600160a01b03811681146103e157600080fd5b919050565b634e487b7160e01b600052604160045260246000fd5b60005b838110156104175781810151838201526020016103ff565b50506000910152565b6000806040838503121561043357600080fd5b61043c836103ca565b60208401519092506001600160401b038082111561045957600080fd5b818501915085601f83011261046d57600080fd5b81518181111561047f5761047f6103e6565b604051601f8201601f19908116603f011681019083821181831017156104a7576104a76103e6565b816040528281528860208487010111156104c057600080fd5b6104d18360208301602088016103fc565b80955050505050509250929050565b6000602082840312156104f257600080fd5b61029f826103ca565b6000825161050d8184602087016103fc565b9190910192915050565b60208152600082518060208401526105368160408501602087016103fc565b601f01601f19169190910160400192915050565b610173806105596000396000f3fe60806040523661001357610011610017565b005b6100115b610027610022610029565b6100dc565b565b60006100697fa3f0ad74e5423aebfd80d3ef4346578335a9a72aeaee59ff6cb3582b35133d505473ffffffffffffffffffffffffffffffffffffffff1690565b73ffffffffffffffffffffffffffffffffffffffff16635c60da1b6040518163ffffffff1660e01b8152600401602060405180830381865afa1580156100b3573d6000803e3d6000fd5b505050506040513d601f19601f820116820180604052508101906100d79190610100565b905090565b3660008037600080366000845af43d6000803e8080156100fb573d6000f35b3d6000fd5b60006020828403121561011257600080fd5b815173ffffffffffffffffffffffffffffffffffffffff8116811461013657600080fd5b939250505056fea2646970667358221220b2071f65069a98c7749ef7475b965c7eaf0cc4ca21ea85b89fd6bce12ceba8fb64736f6c63430008140033416464726573733a206c6f772d6c6576656c2064656c65676174652063616c6c206661696c6564a2646970667358221220a8aa8da917a61709d627efc9ff794a6bc2693fe4415bb75ca4ee24026733cc6f64736f6c63430008140033",
  "linkReferences": {},
  "deployedLinkReferences": {}
}