{
  "_format": "hh-sol-artifact-1",
  "contractName": "LouiceAccount",
  "sourceName": "contracts/v1Account.sol",
  "abi": [
    {
      "anonymous": false,
      "inputs": [
        {
          "indexed": false,
          "internalType": "uint8",
          "name": "version",
          "type": "uint8"
        }
      ],
      "name": "Initialized",
      "type": "event"
    },
    {
      "anonymous": false,
      "inputs": [
        {
          "indexed": true,
          "internalType": "contract IEntryPoint",
          "name": "entryPoint",
          "type": "address"
        },
        {
          "components": [
            {
              "internalType": "uint256",
              "name": "pubKeyX",
              "type": "uint256"
            },
            {
              "internalType": "uint256",
              "name": "pubKeyY",
              "type": "uint256"
            },
            {
              "internalType": "string",
              "name": "keyId",
              "type": "string"
            }
          ],
          "indexed": true,
          "internalType": "struct LouiceAccount.PassKeyId",
          "name": "passKeyId",
          "type": "tuple"
        }
      ],
      "name": "LouiceAccountInitialized",
      "type": "event"
    },
    {
      "inputs": [],
      "name": "addDeposit",
      "outputs": [],
      "stateMutability": "payable",
      "type": "function"
    },
    {
      "inputs": [],
      "name": "entryPoint",
      "outputs": [
        {
          "internalType": "contract IEntryPoint",
          "name": "",
          "type": "address"
        }
      ],
      "stateMutability": "view",
      "type": "function"
    },
    {
      "inputs": [
        {
          "internalType": "address",
          "name": "dest",
          "type": "address"
        },
        {
          "internalType": "uint256",
          "name": "value",
          "type": "uint256"
        },
        {
          "internalType": "bytes",
          "name": "data",
          "type": "bytes"
        },
        {
          "internalType": "address",
          "name": "approveToken",
          "type": "address"
        },
        {
          "internalType": "bytes",
          "name": "approveData",
          "type": "bytes"
        }
      ],
      "name": "execute",
      "outputs": [],
      "stateMutability": "nonpayable",
      "type": "function"
    },
    {
      "inputs": [
        {
          "internalType": "address[]",
          "name": "dest",
          "type": "address[]"
        },
        {
          "internalType": "bytes[]",
          "name": "func",
          "type": "bytes[]"
        }
      ],
      "name": "executeBatch",
      "outputs": [],
      "stateMutability": "nonpayable",
      "type": "function"
    },
    {
      "inputs": [],
      "name": "getDeposit",
      "outputs": [
        {
          "internalType": "uint256",
          "name": "",
          "type": "uint256"
        }
      ],
      "stateMutability": "view",
      "type": "function"
    },
    {
      "inputs": [],
      "name": "getNonce",
      "outputs": [
        {
          "internalType": "uint256",
          "name": "",
          "type": "uint256"
        }
      ],
      "stateMutability": "view",
      "type": "function"
    },
    {
      "inputs": [
        {
          "internalType": "contract IEntryPoint",
          "name": "anEntryPoint",
          "type": "address"
        },
        {
          "internalType": "address",
          "name": "_verifierAddress",
          "type": "address"
        },
        {
          "internalType": "bytes",
          "name": "_passkeyId",
          "type": "bytes"
        }
      ],
      "name": "initialize",
      "outputs": [],
      "stateMutability": "nonpayable",
      "type": "function"
    },
    {
      "inputs": [
        {
          "internalType": "address",
          "name": "",
          "type": "address"
        },
        {
          "internalType": "address",
          "name": "",
          "type": "address"
        },
        {
          "internalType": "uint256[]",
          "name": "",
          "type": "uint256[]"
        },
        {
          "internalType": "uint256[]",
          "name": "",
          "type": "uint256[]"
        },
        {
          "internalType": "bytes",
          "name": "",
          "type": "bytes"
        }
      ],
      "name": "onERC1155BatchReceived",
      "outputs": [
        {
          "internalType": "bytes4",
          "name": "",
          "type": "bytes4"
        }
      ],
      "stateMutability": "pure",
      "type": "function"
    },
    {
      "inputs": [
        {
          "internalType": "address",
          "name": "",
          "type": "address"
        },
        {
          "internalType": "address",
          "name": "",
          "type": "address"
        },
        {
          "internalType": "uint256",
          "name": "",
          "type": "uint256"
        },
        {
          "internalType": "uint256",
          "name": "",
          "type": "uint256"
        },
        {
          "internalType": "bytes",
          "name": "",
          "type": "bytes"
        }
      ],
      "name": "onERC1155Received",
      "outputs": [
        {
          "internalType": "bytes4",
          "name": "",
          "type": "bytes4"
        }
      ],
      "stateMutability": "pure",
      "type": "function"
    },
    {
      "inputs": [
        {
          "internalType": "address",
          "name": "",
          "type": "address"
        },
        {
          "internalType": "address",
          "name": "",
          "type": "address"
        },
        {
          "internalType": "uint256",
          "name": "",
          "type": "uint256"
        },
        {
          "internalType": "bytes",
          "name": "",
          "type": "bytes"
        }
      ],
      "name": "onERC721Received",
      "outputs": [
        {
          "internalType": "bytes4",
          "name": "",
          "type": "bytes4"
        }
      ],
      "stateMutability": "pure",
      "type": "function"
    },
    {
      "inputs": [],
      "name": "passkey",
      "outputs": [
        {
          "internalType": "uint256",
          "name": "pubKeyX",
          "type": "uint256"
        },
        {
          "internalType": "uint256",
          "name": "pubKeyY",
          "type": "uint256"
        },
        {
          "internalType": "string",
          "name": "keyId",
          "type": "string"
        }
      ],
      "stateMutability": "view",
      "type": "function"
    },
    {
      "inputs": [
        {
          "internalType": "bytes4",
          "name": "interfaceId",
          "type": "bytes4"
        }
      ],
      "name": "supportsInterface",
      "outputs": [
        {
          "internalType": "bool",
          "name": "",
          "type": "bool"
        }
      ],
      "stateMutability": "view",
      "type": "function"
    },
    {
      "inputs": [
        {
          "internalType": "address",
          "name": "",
          "type": "address"
        },
        {
          "internalType": "address",
          "name": "",
          "type": "address"
        },
        {
          "internalType": "address",
          "name": "",
          "type": "address"
        },
        {
          "internalType": "uint256",
          "name": "",
          "type": "uint256"
        },
        {
          "internalType": "bytes",
          "name": "",
          "type": "bytes"
        },
        {
          "internalType": "bytes",
          "name": "",
          "type": "bytes"
        }
      ],
      "name": "tokensReceived",
      "outputs": [],
      "stateMutability": "pure",
      "type": "function"
    },
    {
      "inputs": [
        {
          "components": [
            {
              "internalType": "address",
              "name": "sender",
              "type": "address"
            },
            {
              "internalType": "uint256",
              "name": "nonce",
              "type": "uint256"
            },
            {
              "internalType": "bytes",
              "name": "initCode",
              "type": "bytes"
            },
            {
              "internalType": "bytes",
              "name": "callData",
              "type": "bytes"
            },
            {
              "internalType": "uint256",
              "name": "callGasLimit",
              "type": "uint256"
            },
            {
              "internalType": "uint256",
              "name": "verificationGasLimit",
              "type": "uint256"
            },
            {
              "internalType": "uint256",
              "name": "preVerificationGas",
              "type": "uint256"
            },
            {
              "internalType": "uint256",
              "name": "maxFeePerGas",
              "type": "uint256"
            },
            {
              "internalType": "uint256",
              "name": "maxPriorityFeePerGas",
              "type": "uint256"
            },
            {
              "internalType": "bytes",
              "name": "paymasterAndData",
              "type": "bytes"
            },
            {
              "internalType": "bytes",
              "name": "signature",
              "type": "bytes"
            }
          ],
          "internalType": "struct UserOperation",
          "name": "userOp",
          "type": "tuple"
        },
        {
          "internalType": "bytes32",
          "name": "userOpHash",
          "type": "bytes32"
        },
        {
          "internalType": "uint256",
          "name": "missingAccountFunds",
          "type": "uint256"
        }
      ],
      "name": "validateUserOp",
      "outputs": [
        {
          "internalType": "uint256",
          "name": "validationData",
          "type": "uint256"
        }
      ],
      "stateMutability": "nonpayable",
      "type": "function"
    },
    {
      "inputs": [],
      "name": "verifierAddress",
      "outputs": [
        {
          "internalType": "address",
          "name": "",
          "type": "address"
        }
      ],
      "stateMutability": "view",
      "type": "function"
    },
    {
      "inputs": [
        {
          "internalType": "address payable",
          "name": "withdrawAddress",
          "type": "address"
        },
        {
          "internalType": "uint256",
          "name": "amount",
          "type": "uint256"
        }
      ],
      "name": "withdrawDepositTo",
      "outputs": [],
      "stateMutability": "nonpayable",
      "type": "function"
    },
    {
      "stateMutability": "payable",
      "type": "receive"
    }
  ],
  "bytecode": "0x608060405234801561001057600080fd5b50611888806100206000396000f3fe6080604052600436106100f65760003560e01c80634d44560d1161008a578063c399ec8811610059578063c399ec88146102fb578063cf7a1d7714610310578063d087d28814610330578063f23a6e611461034557600080fd5b80634d44560d14610251578063910573ea14610271578063b0d691fe14610295578063bc197c81146102b357600080fd5b806318bdffbb116100c657806318bdffbb146101c357806318dfb3c7146101fb5780633a871cdd1461021b5780634a58db191461024957600080fd5b806223de291461010257806301ffc9a71461012957806304e745be1461015e578063150b7a021461017e57600080fd5b366100fd57005b600080fd5b34801561010e57600080fd5b5061012761011d366004610dab565b5050505050505050565b005b34801561013557600080fd5b50610149610144366004610e5c565b61038b565b60405190151581526020015b60405180910390f35b34801561016a57600080fd5b50610127610179366004610e86565b61040f565b34801561018a57600080fd5b506101aa610199366004610f27565b630a85bd0160e11b95945050505050565b6040516001600160e01b03199091168152602001610155565b3480156101cf57600080fd5b506004546101e3906001600160a01b031681565b6040516001600160a01b039091168152602001610155565b34801561020757600080fd5b50610127610216366004610fdf565b6104b2565b34801561022757600080fd5b5061023b61023636600461104b565b6105bc565b604051908152602001610155565b6101276105e2565b34801561025d57600080fd5b5061012761026c36600461109f565b61065f565b34801561027d57600080fd5b506102866106f4565b604051610155939291906110ef565b3480156102a157600080fd5b506005546001600160a01b03166101e3565b3480156102bf57600080fd5b506101aa6102ce366004611130565b7fbc197c810000000000000000000000000000000000000000000000000000000098975050505050505050565b34801561030757600080fd5b5061023b61078f565b34801561031c57600080fd5b5061012761032b36600461123d565b61082c565b34801561033c57600080fd5b5061023b610998565b34801561035157600080fd5b506101aa6103603660046112e2565b7ff23a6e61000000000000000000000000000000000000000000000000000000009695505050505050565b60006001600160e01b03198216630a85bd0160e11b14806103d557506001600160e01b031982167f4e2312e000000000000000000000000000000000000000000000000000000000145b8061040957506001600160e01b031982167f01ffc9a700000000000000000000000000000000000000000000000000000000145b92915050565b6104176109fa565b610458878787878080601f016020809104026020016040519081016040528093929190818152602001838380828437600092019190915250610a5692505050565b6001600160a01b038316156104a9576104a983600084848080601f016020809104026020016040519081016040528093929190818152602001838380828437600092019190915250610a5692505050565b50505050505050565b6104ba6109fa565b82811461050e5760405162461bcd60e51b815260206004820152601360248201527f77726f6e67206172726179206c656e677468730000000000000000000000000060448201526064015b60405180910390fd5b60005b838110156105b5576105a385858381811061052e5761052e61135e565b90506020020160208101906105439190611374565b60008585858181106105575761055761135e565b90506020028101906105699190611391565b8080601f016020809104026020016040519081016040528093929190818152602001838380828437600092019190915250610a5692505050565b806105ad816113d8565b915050610511565b5050505050565b60006105c66109fa565b6105d08484610ac6565b90506105db82610c46565b9392505050565b6005546001600160a01b03166040517fb760faf90000000000000000000000000000000000000000000000000000000081523060048201526001600160a01b03919091169063b760faf99034906024016000604051808303818588803b15801561064b57600080fd5b505af11580156105b5573d6000803e3d6000fd5b6106676109fa565b6005546001600160a01b03166040517f205c28780000000000000000000000000000000000000000000000000000000081526001600160a01b03848116600483015260248201849052919091169063205c287890604401600060405180830381600087803b1580156106d857600080fd5b505af11580156106ec573d6000803e3d6000fd5b505050505050565b60018054600254600380549293919261070c906113ff565b80601f0160208091040260200160405190810160405280929190818152602001828054610738906113ff565b80156107855780601f1061075a57610100808354040283529160200191610785565b820191906000526020600020905b81548152906001019060200180831161076857829003601f168201915b5050505050905083565b60006107a36005546001600160a01b031690565b6040517f70a082310000000000000000000000000000000000000000000000000000000081523060048201526001600160a01b0391909116906370a08231906024015b602060405180830381865afa158015610803573d6000803e3d6000fd5b505050506040513d601f19601f820116820180604052508101906108279190611439565b905090565b600054610100900460ff161580801561084c5750600054600160ff909116105b806108665750303b158015610866575060005460ff166001145b6108d85760405162461bcd60e51b815260206004820152602e60248201527f496e697469616c697a61626c653a20636f6e747261637420697320616c72656160448201527f647920696e697469616c697a65640000000000000000000000000000000000006064820152608401610505565b6000805460ff1916600117905580156108fb576000805461ff0019166101001790555b600580546001600160a01b038087167fffffffffffffffffffffffff000000000000000000000000000000000000000092831617909255600480549286169290911691909117905561094c82610c93565b8015610992576000805461ff0019169055604051600181527f7f26b83ff96e1f2b6a682f133852f6798a09c465da95921460cefb38474024989060200160405180910390a15b50505050565b60006109ac6005546001600160a01b031690565b6040517f35567e1a000000000000000000000000000000000000000000000000000000008152306004820152600060248201526001600160a01b0391909116906335567e1a906044016107e6565b6005546001600160a01b03163314610a545760405162461bcd60e51b815260206004820152601c60248201527f6163636f756e743a206e6f742066726f6d20456e747279506f696e74000000006044820152606401610505565b565b600080846001600160a01b03168484604051610a729190611452565b60006040518083038185875af1925050503d8060008114610aaf576040519150601f19603f3d011682016040523d82523d6000602084013e610ab4565b606091505b5091509150816105b557805160208201fd5b6040805180820182526001548152600254602082015290516000918291610af4918691869190602401611500565b60408051601f198184030181529181526020820180517bffffffffffffffffffffffffffffffffffffffffffffffffffffffff167f33a0cace00000000000000000000000000000000000000000000000000000000179052600454905191925060009182916001600160a01b031690610b6e908590611452565b600060405180830381855afa9150503d8060008114610ba9576040519150601f19603f3d011682016040523d82523d6000602084013e610bae565b606091505b509150915081610c255760405162461bcd60e51b8152602060048201526024808201527f5374617469632063616c6c20746f2076616c6964617465557365724f7020666160448201527f696c6564000000000000000000000000000000000000000000000000000000006064820152608401610505565b80806020019051810190610c399190611439565b9695505050505050565b50565b8015610c4357604051600090339060001990849084818181858888f193505050503d80600081146105b5576040519150601f19603f3d011682016040523d82523d6000602084013e6105b5565b600080600083806020019051810190610cac9190611629565b6040805160608101825284815260208101849052908101829052600184815560028490559396509194509250906003610ce58482611700565b5050604051610cf791506001906117c0565b60405190819003812060055490916001600160a01b03909116907f9da2b6ba8dead7d6dbeb7c7b3c0441074292d734b9d80f8887995a9f7f8fbaf390600090a350505050565b6001600160a01b0381168114610c4357600080fd5b8035610d5d81610d3d565b919050565b60008083601f840112610d7457600080fd5b50813567ffffffffffffffff811115610d8c57600080fd5b602083019150836020828501011115610da457600080fd5b9250929050565b60008060008060008060008060c0898b031215610dc757600080fd5b8835610dd281610d3d565b97506020890135610de281610d3d565b96506040890135610df281610d3d565b955060608901359450608089013567ffffffffffffffff80821115610e1657600080fd5b610e228c838d01610d62565b909650945060a08b0135915080821115610e3b57600080fd5b50610e488b828c01610d62565b999c989b5096995094979396929594505050565b600060208284031215610e6e57600080fd5b81356001600160e01b0319811681146105db57600080fd5b600080600080600080600060a0888a031215610ea157600080fd5b8735610eac81610d3d565b965060208801359550604088013567ffffffffffffffff80821115610ed057600080fd5b610edc8b838c01610d62565b909750955060608a01359150610ef182610d3d565b90935060808901359080821115610f0757600080fd5b50610f148a828b01610d62565b989b979a50959850939692959293505050565b600080600080600060808688031215610f3f57600080fd5b8535610f4a81610d3d565b94506020860135610f5a81610d3d565b935060408601359250606086013567ffffffffffffffff811115610f7d57600080fd5b610f8988828901610d62565b969995985093965092949392505050565b60008083601f840112610fac57600080fd5b50813567ffffffffffffffff811115610fc457600080fd5b6020830191508360208260051b8501011115610da457600080fd5b60008060008060408587031215610ff557600080fd5b843567ffffffffffffffff8082111561100d57600080fd5b61101988838901610f9a565b9096509450602087013591508082111561103257600080fd5b5061103f87828801610f9a565b95989497509550505050565b60008060006060848603121561106057600080fd5b833567ffffffffffffffff81111561107757600080fd5b8401610160818703121561108a57600080fd5b95602085013595506040909401359392505050565b600080604083850312156110b257600080fd5b82356110bd81610d3d565b946020939093013593505050565b60005b838110156110e65781810151838201526020016110ce565b50506000910152565b838152826020820152606060408201526000825180606084015261111a8160808501602087016110cb565b601f01601f191691909101608001949350505050565b60008060008060008060008060a0898b03121561114c57600080fd5b883561115781610d3d565b9750602089013561116781610d3d565b9650604089013567ffffffffffffffff8082111561118457600080fd5b6111908c838d01610f9a565b909850965060608b01359150808211156111a957600080fd5b6111b58c838d01610f9a565b909650945060808b0135915080821115610e3b57600080fd5b634e487b7160e01b600052604160045260246000fd5b604051601f8201601f1916810167ffffffffffffffff8111828210171561120d5761120d6111ce565b604052919050565b600067ffffffffffffffff82111561122f5761122f6111ce565b50601f01601f191660200190565b60008060006060848603121561125257600080fd5b833561125d81610d3d565b9250602084013561126d81610d3d565b9150604084013567ffffffffffffffff81111561128957600080fd5b8401601f8101861361129a57600080fd5b80356112ad6112a882611215565b6111e4565b8181528760208385010111156112c257600080fd5b816020840160208301376000602083830101528093505050509250925092565b60008060008060008060a087890312156112fb57600080fd5b863561130681610d3d565b9550602087013561131681610d3d565b94506040870135935060608701359250608087013567ffffffffffffffff81111561134057600080fd5b61134c89828a01610d62565b979a9699509497509295939492505050565b634e487b7160e01b600052603260045260246000fd5b60006020828403121561138657600080fd5b81356105db81610d3d565b6000808335601e198436030181126113a857600080fd5b83018035915067ffffffffffffffff8211156113c357600080fd5b602001915036819003821315610da457600080fd5b6000600182016113f857634e487b7160e01b600052601160045260246000fd5b5060010190565b600181811c9082168061141357607f821691505b60208210810361143357634e487b7160e01b600052602260045260246000fd5b50919050565b60006020828403121561144b57600080fd5b5051919050565b600082516114648184602087016110cb565b9190910192915050565b6000808335601e1984360301811261148557600080fd5b830160208101925035905067ffffffffffffffff8111156114a557600080fd5b803603821315610da457600080fd5b81835281816020850137506000828201602090810191909152601f909101601f19169091010190565b8060005b60028110156109925781518452602093840193909101906001016114e1565b608081526115216080820161151486610d52565b6001600160a01b03169052565b602084013560a0820152600061153a604086018661146e565b6101608060c08601526115526101e0860183856114b4565b9250611561606089018961146e565b9250607f19808786030160e088015261157b8585846114b4565b9450610100935060808a013584880152610120915060a08a01358288015261014060c08b01358189015260e08b013584890152848b01356101808901526115c4838c018c61146e565b9550935081888703016101a08901526115de8686866114b4565b95506115ec818c018c61146e565b955093505080878603016101c088015250506116098383836114b4565b935050505083602083015261162160408301846114dd565b949350505050565b60008060006060848603121561163e57600080fd5b8351925060208401519150604084015167ffffffffffffffff81111561166357600080fd5b8401601f8101861361167457600080fd5b80516116826112a882611215565b81815287602083850101111561169757600080fd5b6116a88260208301602086016110cb565b8093505050509250925092565b601f8211156116fb57600081815260208120601f850160051c810160208610156116dc5750805b601f850160051c820191505b818110156106ec578281556001016116e8565b505050565b815167ffffffffffffffff81111561171a5761171a6111ce565b61172e8161172884546113ff565b846116b5565b602080601f831160018114611763576000841561174b5750858301515b600019600386901b1c1916600185901b1785556106ec565b600085815260208120601f198616915b8281101561179257888601518255948401946001909101908401611773565b50858210156117b05787850151600019600388901b60f8161c191681555b5050505050600190811b01905550565b815481526000602060018085015482850152604060028601600081546117e5816113ff565b81861680156117fb576001811461181557611843565b60ff1983168a87015281151560051b8a0186019350611843565b846000528760002060005b8381101561183b5781548c8201890152908801908901611820565b8b0187019450505b5091999850505050505050505056fea2646970667358221220960b60f6e2d179fb9763af9a7f425367c4493e803a45b9c698f6c5f1eae500cc64736f6c63430008140033",
  "linkReferences": {},
  "deployedLinkReferences": {}
}